:020000041000EA
:1000000000B5324B212058609868022188439860DF
:10001000D860186158612E4B002199600221596106
:100020000121F02299502B49196001219960352056
:1000300000F044F80222904214D00621196600F024
:1000400034F8196E01211966002018661A6600F04E
:100050002CF8196E196E196E052000F02FF8012189
:100060000842F9D1002199601B49196000215960AB
:100070001A491B48016001219960EB211966A021F2
:10008000196600F012F800219960164914480160C1
:100090000121996001BC002800D000471248134993
:1000A000086003C880F30888084703B5996A0420EC
:1000B0000142FBD001200142F8D103BD02B5186610
:1000C0001866FFF7F2FF186E186E02BD00000240BE
:1000D000000000180000070000035F00212200005C
:1000E000F4000018222000A00001001008ED00E03C
:1000F00000000000000000000000000074B24E7A12
:1001000000200420F7010010C3010010C5010010F9
:10011000C1010010C1010010C1010010C101001097
:10012000C1010010C1010010C1010010C701001081
:10013000C1010010C1010010C9010010CB01001065
:10014000CD010010CD010010CD010010CD01001037
:10015000CD010010CD010010CD010010CD01001027
:10016000CD010010CD010010CD010010CD01001017
:10017000CD010010CD010010CD010010CD01001007
:10018000CD010010CD010010CD010010CD010010F7
:10019000CD010010CD010010CD010010CD010010E7
:1001A000CD010010CD010010CD010010CD010010D7
:1001B000CD010010CD010010CD010010CD010010C7
:1001C00000BE00BE00BE00BE00BE00BE00F04BF888
:1001D000103800BEF2EB8871A8EC0710D0EC0710C5
:1001E0003402001090A31AE700202149086006C8D5
:1001F00081F3088810471F48006800282FD10DA4FC
:100200000ECC002902D000F012F8F9E71A491B4A77
:10021000002000E001C19142FCD1194988471949E9
:1002200088471949884700BEFDE701C901C29A42C3
:10023000FBD37047D0EC0710C0000020C42500207D
:10024000D41108100000042000000420D41108106C
:1002500000100420001004200000000070470B482C
:1002600026F064FA0047EFF30580C0B27047000043
:1002700008ED00E0000000D0D025002088390320E0
:10028000C54A0210E9030010ED4B0210575600005A
:1002900006005250ABB36053582B07100600525063
:1002A000861C0302682B0710060052505422A29DA0
:1002B000ACE8061005005250DE65F468D411081051
:1002C000F8B5C04610B5064C2378002B07D1054B76
:1002D000002B02D0044800E000BF0123237010BDB2
:1002E000582D002000000000A0E80610044B10B5B7
:1002F000002B03D00349044800E000BF10BDC046F6
:10030000000000005C2D0020A0E8061010B50AF0E7
:10031000E9FA244A0400244924480AF02BFC0BF093
:10032000C3F8002825D00BF065F8002828D00BF082
:100330001BFD00282BD00BF01BF800282ED02368C3
:1003400020009B689847236820005B6898478023BB
:1003500022680421D35820009847200009F004FCAB
:10036000134C206013480AF005FC20681DF000F8CB
:1003700010BD11480AF0FEFB0BF03CF80028D6D166
:100380000E480AF0F7FB0BF0EFFC0028D3D10C4825
:100390000AF0F0FB0AF0ECFF0028D0D109480AF07F
:1003A000E9FBCCE7A0E80610ACE80610B8E80610B8
:1003B000203D002094E90610F4E8061024E9061018
:1003C00044E9061070E9061010B5FFF79FFF054CD1
:1003D0000AF0C2FB0100FF28FAD020681EF0F6FAEE
:1003E000F6E7C046203D002000B5192083B022F07A
:1003F00089FFD02380221B0692045A625A6128F09A
:10040000ADFC00202AF028FC0028FAD0D02380225E
:100410001B0692049A61002380220193013305494F
:100420000093D200002304482DF000FE2DF086FF3B
:10043000FEE7C046C0E90610C903001010B5024827
:100440000AF098FB10BDC046C8E9061010B50AF0C6
:1004500049FA014B186010BD742D0020FEE7C0461C
:10046000F0B54E464546DE465746E0B54B085C1CA7
:10047000E5008FB08046894628008E000121049354
:1004800002F0CAFF0690002800D113E101213000DC
:1004900002F0C2FF0590002800D10DE1049B002B63
:1004A00011D005984A46844643460100013A92001D
:1004B000083D624445441868043A01C1586808334D
:1004C00050609D42F7D14B46DB0700D5D0E04B464C
:1004D0002022203B934311D04B46802B10D0013B70
:1004E000784AFF3B134209D0774B784A4B4413427A
:1004F00004D080235B01994500D0C9E0744CC0E072
:10050000402308AD2B80734B80279A89BF00AA81B6
:100510009A685B680A92099307934B462B826E4B4D
:100520000121380002920D9302F076FF061E00D1E1
:10053000A6E0020000230599280004F0C3FE0699F6
:1005400033688C460B6000234B607268CA513A00D6
:10055000624453603300F93A0833FF3AF1191868DE
:10056000106058680833506008329942F7D1300063
:1005700002F064FF4B46580026F026FC0025A246F8
:1005800002900391069F280026F01EFC534A544B0C
:1005900026F0A5FB029A039B26F083FB26F0A4FC21
:1005A000061C27F0DBFE041C301C27F0E9FEAB0024
:1005B0003968061C201C9B4627F0F3FD7968041C53
:1005C000301C27F0EEFD011C201C27F0D3FD434614
:1005D0005A469850049A2B00083701359A42D2D1D6
:1005E00054464C4535D2029E039F069B3D4D9C468A
:1005F00043464D44AD1AED0065440493200026F0B7
:10060000E3FB364A364B26F06AFB32003B0026F00D
:1006100048FB26F069FC824627F0A0FE8046504643
:1006200027F0AEFEA3002968824640469B4627F08D
:10063000B8FD69688046504627F0B3FD011C40466E
:1006400027F095FD5A46049B01349850083DA1457A
:10065000D4D1059802F0F2FE069802F0EFFE0024D5
:1006600020000FB0F0BCBB46B246A946A046F0BD84
:100670004644049B043E326805999B005A5026E785
:10068000194C059802F0DAFE069802F0D7FEE7E76B
:1006900008AB0093002200230021484602F0E0FC52
:1006A000051EEDD0069A059902F0B4FD280002F06F
:1006B000C5FE5FE70C4CD3E7069802F0BFFE0A4C7C
:1006C000CEE7C046FFFEFFFF00FCFFFFFFFBFFFF82
:1006D00008FCFFFF94EE061094EC0610182D44540D
:1006E000FB210940FFFFFF1F16FCFFFFF0B5DE46B0
:1006F000454657464E46E0B591B0099184214900E0
:100700008C469444614612680C9005921A9A1D001A
:10071000D40020000F93049102F07AFE0790002D80
:1007200071DD0F9B012B00D077E01A9B002B6ADD57
:1007300000230C9DC218E9180833C0C9C0C29C42EE
:10074000F8D10C9E079A331994460893230063440A
:1007500006930023B34603935B46079C06CC06C36F
:100760001A9B012B44D05B461B68002502935B4615
:100770005B680193039B9C46059B65449D4200DB9F
:10078000ED1A049A236894469946EB0063441F6867
:1007900062685B684946381C90469A4627F001FD1E
:1007A0005146061C404627F0FCFC011C301C27F07B
:1007B000DEFC011C029827F0DDFC5B465146186008
:1007C0000290484627F0EDFC4146061C381C27F0F5
:1007D000E8FC011C301C27F0CDFC011C019827F01F
:1007E000C9FC5B465860069B083401909C42C1D10D
:1007F00008239C46099AE3449446039B634403936D
:10080000089B5B45A8D1079802F018FE11B0F0BC18
:10081000BB46B246A946A046F0BDDA0084460A921D
:10082000220062440692099A5A4300230B920E93C7
:100830000D931A9B002B6CDD0C9A0D9B9046DB00F0
:1008400098444346079A0A98069C190060C960C2FA
:100850001B18A242F9D10E9B039300230893434631
:10086000079C06CC06C31A9B012B44D043461B6849
:100870000025019343465B680293039B9C46059BBE
:100880006544AB4200DCED1A049A236894469A460C
:10089000EB0063441F6862685B68391C50469146F0
:1008A0009B4627F07EFC5946061C484627F079FCFB
:1008B000011C301C27F05BFC011C019827F05AFC3E
:1008C0004346594618600190504627F06AFC494655
:1008D000061C381C27F065FC011C301C27F04AFC64
:1008E000011C029827F046FC43465860069B0834DA
:1008F00002909C42C1D10A9A0B999446E0448C46DE
:10090000039A089B624403921A9A013308939A420D
:10091000A5D109990E9A8C460D9B62440E920F9AAE
:1009200001330D939A4284D16DE7C046F0B54E462F
:10093000DE4657464546E0B59FB01E00289B9146CF
:100940001A688346904647465A680C005743FF0092
:1009500005925F44012A00D1FFE208334246069324
:100960004B4653439A464B467343DB000393059B28
:100970000500DB000493330056469B46BA46070049
:10098000299B21000193069B2800009332005B46BF
:10099000FFF7CCFF039B9C46049B64449C46654444
:1009A000AA45EDD14346BB46042B00D1E5E2042B1A
:1009B00000DDF5E0022B01D100F00DFC032B01D08E
:1009C00000F000FC4B462999059A8C46534321338D
:1009D000DB0063445B68089209930B0084214900A3
:1009E0008C4663449846D3004A469A46D2000A92FF
:1009F0004A46DA44120153440B924A46994643460A
:100A000054465D4603930493012A01D000F08AFD09
:100A100023689846049B41461A685F68934662685B
:100A20005846924627F0BDFB5146061C381C27F05D
:100A3000B8FB011C301C27F09AFB59460590504624
:100A400027F0AFFB4146061C381C27F0AAFB011C0F
:100A5000301C27F08FFB4A461768039A06901168EE
:100A600056688A464946496850468846391C27F0E8
:100A700098FB41468346301C27F093FB011C5846E7
:100A800027F075FB51460790404627F08AFB391C3A
:100A90008046301C27F085FB011C404627F06AFB8E
:100AA00005998346079827F065FB069982465846C4
:100AB00027F060FB049B039A0833103280462868B5
:100AC0000493039227F030FC060050460F0027F0F5
:100AD0002BFC0022314B26F002F902000B00300003
:100AE000390026F0CCF826F0FFF92060686827F07E
:100AF0001BFC060040460F0027F016FC0022274B87
:100B000026F0EDF802000B003000390026F0B7F8AF
:100B100026F0EAF907996060059827F028FB099FFD
:100B2000391C27F03EFB5946061C069827F01FFB90
:100B3000391C27F036FB5146071C286827F01AFBA2
:100B400041462860686827F015FB68602068391CFA
:100B500027F010FB4B4618606068311C27F007FB3C
:100B60004B4658602068391C27F001FB311C20607F
:100B7000606827F0FFFA082294466060089B0835F9
:100B8000013B08930834E144002B00D040E71FB03C
:100B9000F0BCBB46B246A946A046F0BD0000E03F0F
:100BA000052B00D00EE305994B460A005A43299BBA
:100BB000D2000933FF3308939B1818680C905868CB
:100BC0009B181A685B680E920F93CB000A001900FD
:100BD00059448C469C44049161469C44E2460391EE
:100BE00061460D9007919A44002AD0DD4A46012AB9
:100BF00001D000F05FFD5344159300230593299B1A
:100C00000D33FF3309935B46D3460693069C089940
:100C1000236862680B930A92059B049ACF58156863
:100C20000998291CC458381C566827F0BAFA311C98
:100C30008046201C27F0B5FA011C404627F097FAA1
:100C4000391C1090301C27F0ACFA291C061C201C03
:100C500027F0A7FA011C301C27F08CFA059B089F8F
:100C60005D007F590399B8460E68119009984F6846
:100C70004459311C404627F094FA391C8146201C07
:100C800027F08FFA011C484627F071FA414612906E
:100C9000381C27F086FA311C071C201C27F081FA2B
:100CA000011C381C27F066FA079E041C3768059A59
:100CB000089B944665445959099889467168455975
:100CC00088464846391C27F06CFA4146061C281C09
:100CD00027F067FA011C301C27F049FA4946061C28
:100CE000404627F05EFA391C8046281C27F059FA46
:100CF0005F46011C404627F03DFA3F68059BB94618
:100D0000089F9B00FF58051C3A1C5F467F68101C1B
:100D1000BA46099F4946FF581392B84627F041FA50
:100D20005146071C404627F03CFA011C381C27F0AE
:100D30001EFA1399071C504627F033FA494682469B
:100D4000404627F02EFA011C504627F013FA10995E
:100D50008246381C27F00EFA11998146504627F03A
:100D600009FA391C8046109827F001FA5146109074
:100D7000119827F0FCF912991190301C27F0FAF91C
:100D8000211C8246281C27F0F5F9311C071C1298FB
:100D900027F0EDF9291C1290201C27F0E8F94946AC
:100DA0001390504627F0E6F90B9E311C27F0E2F92C
:100DB000069C41462060381C27F0DCF90A9927F090
:100DC000D9F90C9D49466060281C27F0EAF9311CCE
:100DD00027F0D0F90E9E041C5146301C27F0E1F993
:100DE000011C201C27F0C6F941461490281C27F04E
:100DF000D8F90A9927F0BEF9391C041C301C27F0D9
:100E0000D0F9011C201C27F0B5F91399051C0F9887
:100E100027F0C7F91199041C0D9827F0C2F9011C9D
:100E2000201C27F0A7F91099061C0D9827F0B9F996
:100E300080231B06C41812990F9827F0B2F9011CE1
:100E4000201C27F094F9311C041C149827F08FF90A
:100E5000049A211C1060281C27F089F9049A14991F
:100E60005060301C27F086F95B46291C1860201C56
:100E700027F080F95D4668600E9D4946281C27F0E2
:100E800090F90B9927F076F90C9B041C5146181C1D
:100E9000994627F086F9011C201C27F06BF9414682
:100EA000041C281C27F07DF90A9927F063F9391CE6
:100EB000051C484627F075F9011C281C27F05AF933
:100EC0000D9B051C1399181C984627F06AF9119977
:100ED0000F9F061C381C27F064F9011C301C27F0FA
:100EE00046F91099061C381C27F05BF91299071C6B
:100EF000404627F056F9011C381C27F038F9211C10
:100F0000071C301C27F036F903990860291C381C8F
:100F100027F030F903994860311C201C27F027F98D
:100F2000079E391C3060281C27F021F90399059B86
:100F30000831039108218C46069C049A08330593D6
:100F4000159B7060083408320836E3440694049216
:100F500007965B4500D059E619E64B4602005E4312
:100F6000F6001300220003CA03C3A4191A009F420B
:100F7000F7D14346042B00D019E5299A059B093285
:100F8000FF3205924A46D2000F924A461201109251
:100F90004A4652004A44D2001192299A0B93526851
:100FA000DB000D924A46012A00D0A5E11A005A44FE
:100FB00094469C440492624663440693059B5C46B7
:100FC00003920793089328E00C9B391C181C984641
:100FD00027F0CDF8049A311C1060281C27F0CAF8BD
:100FE000049A41465060381C27F0C4F8069F291C1B
:100FF0003860301C27F0BBF87860049A0B9B0832ED
:101000000492039A013B08320392069A083408328C
:101010000B930692002B00D1B9E5059B049A196841
:1010200017688946516848468846391C5E6827F02B
:10103000B8F84146051C301C27F0B3F8011C281CE9
:1010400027F095F849460990404627F0AAF8391C40
:10105000051C301C27F0A5F8011C281C27F08AF875
:101060000899039A0D681668A8460A904D6840468C
:10107000311C576827F095F8391C8146281C27F049
:1010800090F8011C484627F072F841468146381C0A
:1010900027F087F8311C071C281C27F082F8011C58
:1010A000381C27F067F8079D80462868069E83460F
:1010B00037687068391C8246584627F072F86E68A7
:1010C0005146051C301C27F06CF8011C281C27F029
:1010D0004EF85946051C504627F063F8391C8246E5
:1010E000301C27F05EF8011C504627F043F8071C1F
:1010F00020684946834627F03AF8666841460C90D6
:10110000301C27F034F8B2464946061C584627F0F2
:1011100031F8414683462060504627F02BF8099964
:1011200082466060281C27F025F80A998146381C01
:1011300027F020F8291C8046099827F018F8391C58
:10114000051C0A9827F013F84946071C584627F053
:101150000EF8039A41461060504627F008F8059BA8
:10116000039A089908330593079B50601031183390
:10117000206808914946079326F0FCFF414620600D
:10118000606826F0F7FF0D9B6060002B00D01BE726
:101190000C9B381C191C984626F0ECFF049B291C5C
:1011A0001860301C26F0E3FF049B391C5860404651
:1011B00026F0DDFF069F311C3860281C26F0DAFF80
:1011C00078601AE74346494600935846059B299A9A
:1011D000FFF78CFADBE4059B299DDC004B46DB0026
:1011E00003934B4609355E46FF355C44012B40D1E5
:1011F000236899462B6849469B46636858469A4639
:101200006B680835984626F0CCFF5146071C4046CF
:1012100026F0C7FF011C381C26F0A9FF5946071C01
:10122000504626F0BEFF49468246404626F0B9FFAA
:10123000011C504626F09EFF391C8046306826F07F
:1012400096FF20607068414626F091FF606030682C
:10125000391C26F08FFF41463060706826F08AFF07
:10126000059B7060013B083408360593002BBFD105
:101270008DE423689A462B68504698466368414639
:1012800099466B689B4626F08CFF5946071C4846DA
:1012900026F087FF011C381C26F069FF5946071C01
:1012A000504626F07EFF49468246404626F079FFAA
:1012B000011C504626F05EFF039B80469C4630682A
:1012C000391C654426F053FF20607068414626F0C3
:1012D0004EFF60603068391C26F04CFF414630609C
:1012E000706826F047FF059B7060013B08340836A4
:1012F0000593002BBDD14AE41A005A4494469C44FD
:1013000063441900059B5C46E2468B4603920693B4
:10131000049326E00C9B181C984626F028FF039D9A
:101320000E9E2860391C301C26F024FF4946686058
:10133000404626F01FFF5B46391C1860301C26F023
:1013400016FF5B462A005860083203920822944632
:101350000B9B0834013B0B93E244E344002B00D188
:1013600015E4059B039A1D68596817688846381C60
:10137000291C566826F015FF41468146301C26F090
:1013800010FF011C484626F0F2FE41460A90381C28
:1013900026F007FF311C071C281C26F002FF011C49
:1013A000381C26F0E7FE51460968049A88465146E3
:1013B00015684F685168089089464046291C26F0F8
:1013C000F0FE4946061C381C26F0EBFE011C301CC2
:1013D00026F0CDFE4946061C404626F0E2FE391CAA
:1013E0008046281C26F0DDFE011C404626F0C2FE89
:1013F0005946051C58460968406889460699804642
:101400000F684868391C0790484626F0CAFE0799BD
:101410000990404626F0C5FE011C099826F0A7FE5B
:1014200007990990484626F0BCFE41468146381C83
:1014300026F0B7FE011C484626F09CFE2768814630
:10144000311C381C26F093FEB8466768291C0C90A6
:10145000381C26F08CFE41460E90301C26F08AFE89
:10146000391C80462060281C26F084FE0A9F0999BA
:1014700007906060381C26F07DFE4946061C0898DF
:1014800026F078FE0999051C381C26F070FE4946A6
:10149000071C089826F06BFE311C8146404626F05A
:1014A00066FE5346291C1860079826F060FE5346D6
:1014B00058600F98059B844663440593109B049ADB
:1014C0009C46119B62449C46069904926144069195
:1014D0002068311C26F04EFE291C2060606826F032
:1014E00049FE0D9B49466060002B00D012E70C9B23
:1014F000181C984626F03EFE039D0E9E2860391C5F
:10150000301C26F034FE49466860404626F02FFE27
:101510005B46391C1860301C26F02CFE5B462A0006
:10152000586011E7CB46236867689846049B40469D
:101530001E685A68311C914626F033FE49468246A1
:10154000381C26F02EFE011C504626F010FE49469F
:101550000590404626F025FE391C8046301C26F0BA
:1015600020FE011C404626F005FE5A4659461268E8
:101570004F689046039A06901668516840468A461E
:10158000311C26F00EFE51468146381C26F009FE1D
:10159000011C484626F0EBFD51468146404626F0A8
:1015A00000FE391C8046301C26F0FBFD011C404625
:1015B00026F0E0FD49468046059826F0DBFD4146D1
:1015C0000790069826F0D6FD0A99049B8C46634442
:1015D00004930B9B039A9C466244039282462868BC
:1015E00026F0A2FE060007980F0026F09DFE0022BE
:1015F0002F4B25F074FB02000B003000390025F062
:101600003EFB25F071FC2060686826F08DFE060028
:1016100050460F0026F088FE0022254B25F05FFB88
:1016200002000B003000390025F029FB25F05CFC9E
:1016300049466060059826F09AFD099F391C26F0FE
:10164000B0FD4146061C069826F091FD391C26F097
:10165000A8FD0799071C286826F08CFD51462860D4
:10166000686826F087FD68602068391C26F082FDD6
:101670005B4618606068311C26F079FD5B46586057
:101680002068391C26F073FD311C2060606826F04C
:1016900071FD08229446089B6060013B0835089361
:1016A0000834E344002B00D03DE7FFF770FAC04652
:1016B0000000E03FD3001B9313011A9353004B44E7
:1016C000DB001D9353011C9300230B931093119384
:1016D0000A931993299B0D33FF3309935B46D34635
:1016E0000693069C0A982368626812931392049BDF
:1016F000089A1E681458099F211C3F58301C5D68C9
:1017000026F04FFD391C8046281C26F04AFD011C9E
:10171000404626F02CFD391C1590301C26F041FD6A
:10172000291C061C201C26F03CFD011C301C26F048
:1017300021FD119B039A08991668CC58099F211C1A
:101740001690301CFF58556826F02BFD391C80463A
:10175000281C26F026FD011C404626F008FD391CF9
:101760001790301C26F01DFD291C061C201C26F09D
:1017700018FD011C301C26F0FDFC0799041C0D68A7
:10178000109AA846089D099EAD58B6584F68404625
:10179000291C26F006FDB146061C4946381C26F0D9
:1017A00000FD011C301C26F0E2FC4946061C4046A8
:1017B00026F0F7FC391C8046281C26F0F2FC5F4618
:1017C000011C404626F0D6FC3F680B99BA46089F9C
:1017D000051C7F585046B8465F467F68B946099F4A
:1017E0007F584146149726F0DCFC1499071C4846A4
:1017F00026F0D7FC011C381C26F0B9FC1499071CF4
:10180000504626F0CEFC49468246404626F0C9FCAA
:10181000011C504626F0AEFC391C8146159826F076
:10182000A9FC49468046169826F0A4FC391C82463D
:10183000159826F09CFC49461490169826F097FCC3
:10184000311C1590179826F095FC291C8146201C08
:1018500026F090FC311C071C179826F088FC291CE8
:101860001690201C26F083FC49461790404626F02F
:1018700081FC129E311C26F07DFC069C391C2060E8
:10188000504626F077FC139926F074FC0C9D4146D7
:101890006060281C26F085FC311C26F06BFC494654
:1018A000041C0E9826F07DFC011C201C26F062FC16
:1018B0005146061C281C26F074FC139926F05AFC8D
:1018C000391C041C0E9826F06CFC011C201C26F010
:1018D00051FC1599041C0D9826F063FC1799051C02
:1018E0000F9826F05EFC011C281C26F043FC802586
:1018F000149918900D9826F054FC2D061699451948
:101900000F9826F04EFC011C281C26F030FC18997C
:10191000051C301C26F02BFC049B291C1860201C85
:1019200026F025FC049B18995860301C26F022FCF8
:101930005E46291C3060201C26F01CFC0E9D414692
:101940007060281C26F02DFC129926F013FC0C9BCD
:101950004946041C181C994626F023FC011C201C37
:1019600026F008FC5146041C281C26F01AFC13998A
:1019700026F000FC391C051C484626F012FC011C10
:10198000281C26F0F7FB17990D9B051C181C984680
:1019900026F007FC0F9F1599061C381C26F001FC49
:1019A000011C301C26F0E3FB1499061C381C26F0A1
:1019B000F8FB1699071C404626F0F3FB011C381C67
:1019C00026F0D5FB311C071C201C26F0D3FB039A04
:1019D000391C1060281C26F0CDFB039A311C506086
:1019E000201C26F0C4FB079E391C3060281C26F002
:1019F000BEFB069C1B9D083406940824A4463100B7
:101A0000E344AC46049B039A199C70600A9808331F
:101A1000604408320831013404930392119B07910A
:101A200019940A901A98109A8446634411931D9B46
:101A30000B999C461C9B62449C46059B61441092FA
:101A40000B91A34200D04CE6FFF7A1F8F0B5454654
:101A5000DE4657464E4691461A68E0B51700834663
:101A60005D680C006F43FF00904697B05F44012D06
:101A700000D1D6E2083303934B46DB000493EB001E
:101A80009A462B00060015009846209B21000193E2
:101A9000039B300000932A004B46FEF747FF049B50
:101AA00056449C466444B742EFD14346A8461D00C5
:101AB0004346042B00D1C5E2042B00DDE2E0022BFB
:101AC00001D100F0F0FB032B00D0E3E32B002099C1
:101AD00021338C46DB0063445B6808950993EB0077
:101AE0009946D9444B4498464C465D460931FF31EE
:101AF00003910491236867689946039B48461E68D2
:101B00005A68311C924626F04CFB51468346381CDD
:101B100026F047FB011C584626F029FB514605904C
:101B2000484626F03EFB391C8146301C26F039FB26
:101B3000011C484626F01EFB4246414612684F688B
:101B40009146049A06901668516848468A46311CA8
:101B500026F027FB51468346381C26F022FB011C49
:101B6000584626F004FB51468346484626F019FBAA
:101B7000391C8146301C26F014FB011C484626F017
:101B8000F9FA59468146059826F0F4FA4946079035
:101B9000069826F0EFFA039B049A08331032824627
:101BA00028680393049226F0BFFB060007980F00F5
:101BB00026F0BAFB0022324B25F091F802000B0010
:101BC0003000390025F05BF825F08EF92060686858
:101BD00026F0AAFB060050460F0026F0A5FB0022C7
:101BE000274B25F07CF802000B003000390025F06F
:101BF00046F825F079F959466060059826F0B7FA5D
:101C0000099F391C26F0CDFA4946061C069826F095
:101C1000AEFA391C26F0C5FA0799071C286826F089
:101C2000A9FA51462860686826F0A4FA686020681E
:101C3000391C26F09FFA434618606068311C26F074
:101C400096FA434658602068391C26F090FA311CF9
:101C50002060606826F08EFA08229446089B606037
:101C6000013B083508930834E044002B00D041E7DD
:101C700017B0F0BCBB46B246A946A046F0BDC04670
:101C80000000E03F052B00D004E3209AEB0009326E
:101C9000FF320892D21811680C915168D2180D9138
:101CA000116852680E910F921A005A4494469C444F
:101CB000049262469C44E246059262469A44079228
:101CC000002DD5DD5344159300230393209B0D3342
:101CD000FF3309935B46D3460693069C0899236815
:101CE00062680A930B92039B049ACC581668099871
:101CF000211CC758301C556826F053FA391C804601
:101D0000281C26F04EFA011C404626F030FA391CF9
:101D10001190301C26F045FA291C061C201C26F0C8
:101D200040FA011C301C26F025FA039B0599089EF9
:101D3000129009985D0074590F684E684159381C1B
:101D40008846211C26F02DFA41468146301C26F09B
:101D500028FA011C484626F00AFA41461390381C1E
:101D600026F01FFA311C071C201C26F01AFA011C51
:101D7000381C26F0FFF9079E041C3768039BB84601
:101D8000EB180998089DC158ED5889464046291C12
:101D900026F007FA77684946061C381C26F001FA37
:101DA000011C301C26F0E3F94946061C404626F08B
:101DB000F8F9391C8046281C26F0F3F95F46011C0F
:101DC000404626F0D7F93F68039BBA46089F9B0020
:101DD000FF58051CB8465F467F684146B946099FD3
:101DE0005046FF58109726F0DCF91099071C48461A
:101DF00026F0D7F9011C381C26F0B9F91099071CF8
:101E0000504626F0CEF949468246404626F0C9F9AA
:101E1000011C504626F0AEF9391C8146119826F077
:101E2000A9F949468046129826F0A4F9391C824641
:101E3000119826F09CF949461090129826F097F9CF
:101E4000311C1190139826F095F9291C8146201C0D
:101E500026F090F9311C071C139826F088F9291CEC
:101E60001290201C26F083F949461390404626F034
:101E700081F90A9E311C26F07DF9069C391C2060F0
:101E8000504626F077F90B9926F074F90C9D4146DF
:101E90006060281C26F085F9311C26F06BF9494654
:101EA000041C0E9826F07DF9011C201C26F062F916
:101EB0005146061C281C26F074F90B9926F05AF995
:101EC000391C041C0E9826F06CF9011C201C26F00D
:101ED00051F91199041C0D9826F063F91399051C0A
:101EE0000F9826F05EF9011C281C26F043F9802586
:101EF000109914900D9826F054F92D061299451951
:101F00000F9826F04EF9011C281C26F030F9149980
:101F1000051C301C26F02BF9049A291C1060201C8B
:101F200026F025F9049A14995060301C26F022F905
:101F30005E46291C3060201C26F01CF90E9D41468F
:101F40007060281C26F02DF90A9926F013F90C9BD5
:101F50004946041C181C994626F023F9011C201C34
:101F600026F008F95146041C281C26F01AF90B9992
:101F700026F000F9391C051C484626F012F9011C10
:101F8000281C26F0F7F813990D9B051C181C984681
:101F900026F007F90F9F061C1199381C26F001F94D
:101FA000011C301C26F0E3F81099061C381C26F0A2
:101FB000F8F81299071C404626F0F3F8011C381C6B
:101FC00026F0D5F8311C071C201C26F0D3F8059903
:101FD0000860391C281C26F0CDF805994860311C92
:101FE000201C26F0C4F8079E391C3060281C26F0FF
:101FF000BEF8049A35000832049208229446039BE6
:10200000069C059908330393159B0834083108355D
:10201000E34470600694059107959B4500D05CE60B
:1020200026E64B464A46D9000300012A00D022E1A9
:10203000220041CA41C364189F42F9D14346042B90
:1020400000D039E5EB009A469946DA44D1444B4436
:1020500098464B4603935346209A20990932496883
:10206000FF325C460B95C34605920D91079206928E
:10207000049328E00C9B181C984626F078F8049AE4
:10208000311C1060281C26F075F8049A391C506029
:10209000404626F06FF85B46311C1860281C26F07D
:1020A00066F85B465860049A0B9B08320492039AC8
:1020B000013B083203920822944608340B93E34410
:1020C000002B00D1D4E5049A136857689846059B05
:1020D00040461E6859688946311C26F062F8494618
:1020E000051C381C26F05DF8011C281C26F03FF862
:1020F00049460990404626F054F8391C051C301C0E
:1021000026F04FF8011C281C26F034F8039A069993
:1021100017680D680A904868291C8046381C566864
:1021200026F03FF841468146301C26F03AF8011C63
:10213000484626F01CF841468146381C26F031F806
:10214000311C071C281C26F02CF85D46011C381C8D
:1021500026F010F82D68079EAA46804635687068FC
:102160005F46291C0890504626F01BF87F680899A6
:10217000061C381C26F015F8011C301C25F0F7FF52
:102180000899061C504626F00CF8391C8246281C7B
:1021900026F007F8011C504625F0ECFF2568071CC7
:1021A0004946281C089525F0E2FF656841460C90D9
:1021B000281C25F0DCFFAA460899051C484625F096
:1021C000D9FF514608902060404625F0D3FF311CCE
:1021D00082466060099825F0CDFF391C81460A9837
:1021E00025F0C8FF311C8046099825F0C0FF391C36
:1021F000061C0A9825F0BBFF4946071C089825F0E5
:10220000B6FF039A41461060504625F0B0FF059B8B
:10221000039A083306990593079B506018331031D1
:10222000079306914946206825F0A4FF41462060A7
:10223000606825F09FFF0D9B6060391C002B00D06B
:1022400018E70C9B181C984625F094FF049B311C42
:102250001860281C25F08BFF049B391C58604046F1
:1022600025F085FF5B46311C1860281C25F082FF95
:102270005B46586017E7220041CA41C364189F4279
:1022800000D115E4220041CA41C364189F42F2D133
:10229000FFF70EFC43460121009358462B00209A7D
:1022A000FEF724FAE4E4EC0003955D46209F5C44CD
:1022B0000937FF3723689A463B685046984663685B
:1022C000414699467B6808379B4625F06AFF594688
:1022D000061C484625F065FF011C301C25F047FF11
:1022E0005946061C504625F05CFF4946824640464A
:1022F00025F057FF011C504625F03CFF311C80465D
:10230000286825F034FF20606868414625F02FFFDB
:1023100060602868311C25F02DFF41462860686800
:1023200025F028FF039B6860013B083408350393C0
:10233000002BBFD19CE4C046F0B54E464546DE4674
:10234000574689460100E0B5213185B0C900804675
:102350000191002B00D134E1002A00D1E6E1080010
:102360001968814200D293E0924618605346424673
:102370001A604A465A60002A00D199E04346002B71
:1023800000DCD7E1404624F023FD84235B00534466
:102390009B46002306000F009946484624F018FD8E
:1023A000BC4ABD4B24F09BFC32003B0024F079FC7E
:1023B00004000D0024F0BAFD24F096FD5B462900D0
:1023C0001860200024F0C8FD24F08EFD5B465860A4
:1023D00001239C460733E1449C46E344C845DCD1D5
:1023E0003000390024F08CFD24F094FE0022AB4B29
:1023F000544606000F0024F0BDFC80230022083460
:10240000DB05002800D184E03000390024F0B2FC64
:102410000425002800D001E101239B4601330296E8
:1024200003979946270044462900200024F0B0F97C
:10243000002911D12000290024F0AAF93B00040052
:102440003D6008337860012825DD290020001F0049
:1024500024F09EF90029EDD0022D00D118E1042DC1
:1024600000D008E15B46234200D011E14A463A60C1
:102470003A00E30F1B195B1008327B60032C0ADD66
:10248000594617001C00194200D001E10225D1E78E
:10249000186000239A460E9B002B01D0019A1A6007
:1024A000504605B0F0BCBB46B246A946A046F0BDBA
:1024B0004346002B00DC3DE1404624F089FC8423A8
:1024C0005B00534406000F009B46484624F080FC06
:1024D000704A734B24F003FC32003B0024F0E1FB14
:1024E00004000D0024F022FD24F0FEFC5B462900D0
:1024F0001860200024F030FD24F0F6FC5B465860A4
:1025000001239C460733E1449C46E344C845DCD1A3
:1025100066E73000390024F02DFC0425002858D14E
:102520000123029603979B4627004446290020007A
:1025300024F02EF9002935D0022D15D0042D00D01D
:10254000DEE05B4623420FD102223A603A00E30FFD
:102550001B195B1008327B60032C9CDD5946170069
:102560001C00194200D1F2E00321200024F010F9F0
:10257000002900D0D5E02000033124F009F903231D
:102580003B60053399460500B9447860052C00DCB2
:1025900081E7032124F0FCF8002900D0D2E02C00D0
:1025A0004F4603252000290024F0F2F8082399461D
:1025B00004003D60B9447860012800DC6BE74F46B9
:1025C000B4E7080000F024FF8246002800D162E74B
:1025D000CCE602960397270044462900200024F009
:1025E000D7F8002912D12000290024F0D1F83B00AF
:1025F00004003D6008337860012800DC4BE71F00D1
:102600002900200024F0C4F80029ECD0022D49D084
:10261000042D6ED13B0025001F00F1E70223029636
:1026200003979946270044462900200024F0B0F87B
:10263000002916D04A46AB1E93430BD00235280022
:1026400024F0C6FB02000B000298039924F092FBD1
:102650000028E9D025002000290024F099F800295D
:10266000E8D13B0004003D6008337860012800DCBD
:1026700011E71F00D8E70235280024F0A9FB02006B
:102680000B000298039924F075FB002800D1CBE6DB
:102690002500C9E6182D4454FB21194000000840CC
:1026A000FB2119C00321200024F072F8002914D165
:1026B0002000033124F06CF803233B600533994676
:1026C0000500B9447860052C00DCE4E6032124F021
:1026D0005FF84F462C00002932D0002205251D4B03
:1026E0000298039924F046FB3B00002892D11F007A
:1026F00086E70235280024F06BFB02000B00EFE7B1
:102700000235280024F064FBB94602000B00029851
:10271000039924F02FFB002800D150E725004F46F5
:1027200004E7B946002205250A4BF0E719600023AB
:102730009A46B0E6404624F04BFB06000F004FE6F9
:10274000032550E72C0000220525024BDFE7022578
:1027500028E7C04600001440F0B5DE46454657461F
:102760004E46E0B504000D00934697B0914201D16A
:1027700000F00FFC8368C76818007843C0008146EA
:102780009846D944012F00D105E110239C46A4446A
:1027900063460393FB009A46160023003A00444622
:1027A0004F469846914643460193039B29003000CB
:1027B0000093220001235644FEF7B8F80835B742CB
:1027C000F1D14346A0461C0043464F46042B00D19E
:1027D000F3E0042B00DD0BE2022B01D100F0F8FB4B
:1027E000032B00D0EBE33B002133DB00E3185B68F5
:1027F00021000993FB009946D9444B4498464C4626
:102800005D460931FF310897039104912368676899
:102810009946039B48461E685A68311C924625F02B
:10282000C0FC51468346381C25F0BBFC011C5846B1
:1028300025F09DFC51460590484625F0B2FC391C18
:102840008146301C25F0ADFC011C484625F092FC69
:102850004246414612684F689146049A06901668AF
:10286000516848468A46311C25F09BFC51468346F8
:10287000381C25F096FC011C584625F078FC514682
:102880008346484625F08DFC391C8146301C25F0D6
:1028900088FC011C484625F06DFC59468146059888
:1028A00025F068FC49460790069825F063FC039BD9
:1028B000049A08331032824628680393049225F064
:1028C00033FD060007980F0025F02EFD0022C74BB0
:1028D00024F005FA02000B003000390024F0CFF993
:1028E00024F002FB2060686825F01EFD06005046BB
:1028F0000F0025F019FD0022BC4B24F0F0F9020076
:102900000B003000390024F0BAF924F0EDFA5946F2
:102910006060059825F02BFC099F391C25F041FCCF
:102920004946061C069825F022FC391C25F039FC86
:102930000799071C286825F01DFC51462860686827
:1029400025F018FC68602068391C25F013FC43460C
:1029500018606068311C25F00AFC43465860206806
:10296000391C25F004FC311C2060606825F002FC55
:1029700008229446089B6060013B083508930834A0
:10298000E044002B00D041E717B0F0BCBB46B24694
:10299000A946A046F0BD0023BC46A1461600F21889
:1029A000E918083390C990C29842F8D14346674667
:1029B0004C46B346042B00D00BE784235B009C46B7
:1029C000FB009A469946DA44D1444B4498464B461C
:1029D000A44462460393534661680B975C46059294
:1029E000C3460D9107920692049327E00C9B181C96
:1029F000984625F0BCFB049A311C1060281C25F079
:102A0000B9FB049A391C5060404625F0B3FB5B4685
:102A1000311C1860281C25F0AAFB5B465860049AFC
:102A20000B9B08320492039A013B0832039208225E
:102A3000944608340B93E344002BA5D0049A136802
:102A400057689846059B40461E6859688946311C60
:102A500025F0A7FB4946051C381C25F0A2FB011CEC
:102A6000281C25F084FB49460990404625F099FB37
:102A7000391C051C301C25F094FB011C281C25F07A
:102A800079FB039A069917680D680A904868291C13
:102A90008046381C566825F084FB41468146301C30
:102AA00025F07FFB011C484625F061FB414681462D
:102AB000381C25F076FB311C071C281C25F071FB07
:102AC0005D46011C381C25F055FB2D68079EAA4663
:102AD0008046356870685F46291C0890504625F08E
:102AE00060FB7F680899061C381C25F05AFB011C06
:102AF000301C25F03CFB0899061C504625F051FB84
:102B0000391C8246281C25F04CFB011C504625F040
:102B100031FB2568071C4946281C089525F027FB32
:102B2000656841460C90281C25F021FBAA460899AF
:102B3000051C484625F01EFB514608902060404683
:102B400025F018FB311C82466060099825F012FBC5
:102B5000391C81460A9825F00DFB311C80460998E6
:102B600025F005FB391C061C0A9825F000FB494698
:102B7000071C089825F0FBFA039A4146106050465E
:102B800025F0F5FA059B039A083306990593079BF0
:102B9000506018331031079306914946206825F09C
:102BA000E9FA41462060606825F0E4FA0D9B606018
:102BB000391C002B00D019E70C9B181C984625F0F7
:102BC000D9FA049B311C1860281C25F0D0FA049B0C
:102BD000391C5860404625F0CAFA5B46311C186023
:102BE000281C25F0C7FA5B46586018E70000E03F54
:102BF000052B00D0E3E1842252009446A4446246AF
:102C0000FB000892D21811680C915168D2180D91EE
:102C1000116852680E910F921A005A4494469C44CF
:102C2000049262469C44E246059262469A440792A8
:102C3000002F00DCA8E653441593002303935B4662
:102C4000D3460D34FF3409940693069C08992368F3
:102C500062680A930B92039B049ACC5816680998F1
:102C6000211CC758301C556825F09BFA391C80463A
:102C7000281C25F096FA011C404625F078FA391CEC
:102C80001190301C25F08DFA291C061C201C25F003
:102C900088FA011C301C25F06DFA039B0599089EEB
:102CA000129009985D0074590F684E684159381C9C
:102CB0008846211C25F075FA41468146301C25F0D6
:102CC00070FA011C484625F052FA41461390381C10
:102CD00025F067FA311C071C201C25F062FA011C44
:102CE000381C25F047FA079E041C3768039BB8463A
:102CF000EB180998089DC158ED5889464046291C93
:102D000025F04FFA77684946061C381C25F049FA29
:102D1000011C301C25F02BFA4946061C404625F0C4
:102D200040FA391C8046281C25F03BFA5F46011CFE
:102D3000404625F01FFA3F68039BBA46089F9B0058
:102D4000FF58051CB8465F467F684146B946099F53
:102D50005046FF58109725F024FA1099071C484652
:102D600025F01FFA011C381C25F001FA1099071CE8
:102D7000504625F016FA49468246404625F011FA9B
:102D8000011C504625F0F6F9391C8146119825F0B2
:102D9000F1F949468046129825F0ECF9391C824633
:102DA000119825F0E4F949461090129825F0DFF9C2
:102DB000311C1190139825F0DDF9291C8146201C47
:102DC00025F0D8F9311C071C139825F0D0F9291CDF
:102DD0001290201C25F0CBF949461390404625F06F
:102DE000C9F90A9E311C25F0C5F9069C391C2060E2
:102DF000504625F0BFF90B9925F0BCF90C9D4146D2
:102E00006060281C25F0CDF9311C25F0B3F9494646
:102E1000041C0E9825F0C5F9011C201C25F0AAF908
:102E20005146061C281C25F0BCF90B9925F0A2F987
:102E3000391C041C0E9825F0B4F9011C201C25F047
:102E400099F91199041C0D9825F0ABF91399051CFB
:102E50000F9825F0A6F9011C281C25F08BF9802578
:102E6000109914900D9825F09CF92D06129945198A
:102E70000F9825F096F9011C281C25F078F9149973
:102E8000051C301C25F073F9049A291C1060201CC5
:102E900025F06DF9049A14995060301C25F06AF9F8
:102EA0005E46291C3060201C25F064F90E9D4146C9
:102EB0007060281C25F075F90A9925F05BF90C9BC8
:102EC0004946041C181C994625F06BF9011C201C6E
:102ED00025F050F95146041C281C25F062F90B9985
:102EE00025F048F9391C051C484625F05AF9011C03
:102EF000281C25F03FF913990D9B051C181C9846BA
:102F000025F04FF90F9F061C1199381C25F049F93F
:102F1000011C301C25F02BF91099061C381C25F0DB
:102F200040F91299071C404625F03BF9011C381C5A
:102F300025F01DF9311C071C201C25F01BF90599F3
:102F40000860391C281C25F015F905994860311CCA
:102F5000201C25F00CF9079E391C3060281C25F038
:102F600006F9049A35000832049208229446039B1D
:102F7000069C059908330393159B083408310835DE
:102F8000E34470600694059107959B4500D05CE68C
:102F9000FAE40368D80000F03BFA23000600290099
:102FA000083301220094FEF751FD22683100280009
:102FB000D20025F00FFC300000F040FAE4E4434674
:102FC0002200009301213B005846FDF78FFBDBE414
:102FD0005E460934FD00FF345D4403972B689A4632
:102FE0002368504698466B684146994663680834A2
:102FF0009B4625F0D6F85946071C484625F0D1F8DF
:10300000011C381C25F0B3F85946071C504625F022
:10301000C8F849468246404625F0C3F8011C504690
:1030200025F0A8F8391C8046306825F0A0F8286003
:103030007068414625F09BF868603068391C25F0BF
:1030400099F841463060706825F094F8039B7060F1
:10305000013B083508360393002BBFD194E4C046EA
:10306000F0B54E464546DE465746E0B51D00002306
:1030700087B00593013316001A0002408946904636
:10308000034200D0ACE04410009205AB00222000C7
:10309000FFF752F963001B19D90FC9184910C9006D
:1030A0008B46059B0C339B44002D00D19EE02B6882
:1030B0005B4500D29FE05B46B2462B605346002B37
:1030C0004FD0524651460C321A60059B2000D3184F
:1030D0004B60E1005B1851468B600023494600932A
:1030E00005ABFFF729F94B46002B42D0E30F1B1924
:1030F0005B100393012C2FDD200023F069FE534663
:103100009B6806000F00994601239C46E044404618
:1031100023F05EFE32003B0023F0C3FD0022384B5B
:1031200023F0B6FD374A384B23F0D9FD04000D00DB
:1031300023F0FCFE23F0D8FE4B4629001860200047
:1031400023F00AFF23F0D0FE4B46586008239C462C
:10315000039BE1449845D7DB109B002B01D05A46D6
:103160001A60504607B0F0BCBB46B246A946A0461E
:10317000F0BDE30F1B195B100393012CECDD200065
:1031800023F026FE53469B6806000F009846012355
:103190009C46E144484623F01BFE32003B0023F0EE
:1031A00080FD0022164B23F073FD164A174B23F0C7
:1031B00096FD04000D0023F0B9FE23F095FE434672
:1031C00029001860200023F0C7FE23F08DFE43463F
:1031D000586008239C46039BE0449945D7DBBBE736
:1031E0000B4807F0C7FC00239A46BAE7584600F0A0
:1031F0000FF9824662E75B462B6000239A46B0E7F0
:103200000000E03F182D4454FB210940FB2109C078
:10321000D8E90610F0B54E464546DE465746E0B5BD
:10322000050000680E004368140087B0002B00D032
:10323000B4E06A6831000768FFF78EFA6B68FE0039
:1032400098461B689A4643465B685046191C9B4645
:1032500024F090FFA319994620605946504624F067
:1032600086FF4B464A461860002363605360FB0F9D
:10327000DB195B100593012F00DC88E00823083E72
:103280004344B044994643460093AB6825009B46AF
:10329000A419012308354E46A046A9460293009B77
:1032A00035681A68291C101C5C68924624F062FF7D
:1032B0007768211C0390381C24F059FF5146049074
:1032C000281C24F054FF391C051C201C24F052FF3C
:1032D0005A461268041C92465A4652685146281CA7
:1032E000019224F05EFF0199071C201C24F059FF75
:1032F000011C381C24F03BFF0199071C281C24F0FA
:1033000050FF5146051C201C24F04BFF011C281CBB
:1033100024F030FF039B041C391C181C9A4624F02F
:1033200029FFFC21890524F03CFF4A46049D1060DA
:10333000291C201C24F01EFFFC21890524F031FFEC
:103340004A46391C5060504624F011FFFC21890583
:1033500024F027FF4246291C1060201C24F007FFA0
:10336000FC21890524F01DFF42465060029A083670
:1033700001320292009B083B009308239C46103BBD
:10338000E344E1449C46059BE0449A4287DD07B054
:10339000F0BCBB46B246A946A046F0BD024807F0C5
:1033A000E9FB286845E7C046F4E9061000207047AD
:1033B00010B52BF0A9F9002010BDC04610B520F0C3
:1033C000C5FF002906D0FA220023920023F04AFA12
:1033D000002110BDFA21890023F002FAF8E7C04667
:1033E00010B520F0B3FF10BD10B50100014807F083
:1033F000C1FB10BD1CEA061010B524F095FF0200B9
:103400000B00024807F0B6FB10BDC04620EA0610CC
:1034100010B52BF011FD10BD70B5002500290AD0A4
:10342000414308000C002BF007FD051E03D02200CD
:10343000002125F0C9F9280070BDC04610B52BF059
:10344000B1FD10BDF0B5DE4657464E464546E0B5E7
:1034500043688DB000934B680A9353684A8841884B
:103460000088940007908808019003200840890094
:1034700006900991012A00D07AE09B460593019BB2
:10348000A3441B019C4604935B460293069BA04603
:103490009B46009A62440392059B9A460A9B994672
:1034A000019F002F60D04D460024009E316828689F
:1034B00024F077FE211C24F05DFE43467168041C55
:1034C000E85824F06EFE211C24F054FEB168041C60
:1034D000A86824F066FE211C24F04CFEF168041C50
:1034E000E86824F05EFE211C24F044FE013F041C29
:1034F00010351036002FD9D1049D039F4D445B46F3
:10350000002B0DD05E4602CF286824F04AFE011C35
:10351000201C24F02FFE013E041C4544002EF2D155
:10352000534610C39A4604239C46029BE1449A45A5
:10353000B6D1099A009B9446029963444144059A86
:1035400000930291079B0399013B61444244079316
:1035500003910592002B9FD100200DB0F0BCBB461B
:10356000B246A946A046F0BD4D460024009FC6E7DE
:103570009C460098A4440B936346844601990493A7
:103580000B0163440593D3009B4653009B189B009B
:103590009A4613019946A046594308910B9B039301
:1035A0000A9B0293019F002F5CD00024009E029D85
:1035B0002968306824F0F5FD211C24F0DBFD43462A
:1035C000041CE958706824F0ECFD211C24F0D2FDA5
:1035D0005B46041CE958B06824F0E3FD211C24F08C
:1035E000C9FD5346041CE958F06824F0DAFD211C9B
:1035F00024F0C0FD013F041C4D441036002FD7D1EC
:10360000089B029D9C46059F6544069E002E0CD09B
:10361000296801CF24F0C5FD011C201C24F0AAFD5F
:10362000013E041C4544002EF2D1029A039B043251
:103630000292049A10C303939342B3D1099A009B58
:1036400094460499634441440B9A00930491079B68
:103650000599013B61444244079305910B92002B6D
:103660009CD179E70024029D009FCEE7F8B54E4635
:10367000DE4657464546E0B543680E1C9B465368F8
:1036800042889A4603885A439308914698461FD029
:103690005D4654461F002868311C24F082FD2060DE
:1036A0006868311C24F07DFD6060A868311C24F03E
:1036B00078FDA060E868311C24F073FD013FE060F4
:1036C00010351034002FE6D143461B019B449A4429
:1036D00003234C464A461C40134219D05B46311C1A
:1036E000186824F05EFD5346651E1860012C0FD04B
:1036F0005B46311C586824F054FD53465860012D38
:1037000006D05B46311C986824F04BFD5346986008
:103710000020F0BCBB46B246A946A046F8BDC04654
:10372000F0B55746DE464E4645460300E0B5032752
:103730005C881A88A3089C464068496885B0930055
:103740002740012A36D16646CA18904662465E4333
:1037500012019246B2009346BA00914664460A00AE
:10376000002C11D0040065462668013D166066688D
:10377000D650A6689660E6681034D6601032002DE8
:10378000F2D15A4650445218002F08D005003C0090
:1037900040CD013C1660D218002CF9D148440431C8
:1037A0004145DBD1002005B0F0BCBB46B246A9467E
:1037B000A046F0BDCC18A346D400A2465400A418DD
:1037C0001201904662461201029262465A439200EA
:1037D0000192BA0003924246A400804689465E46A2
:1037E00051461000BA46270064464A46002C15D0C0
:1037F00044466546B3462668013D16606668D65065
:10380000A6685650E6681034D6511218002DF2D131
:10381000029A5E469346019AD8444A445446002C84
:103820000BD04546B34640CD013C1660D218002C63
:10383000F9D1039A5E469346D84404229346D9446C
:10384000B145D1D1AEE7C046F0B5DE4657464E464B
:103850004546E0B585B00193030010CB03919A462D
:103860000B00013B9B469B08009202936ED00133F4
:103870009B00994600235546042698462F68201C35
:10388000391C24F0C5FC002802D0F31E98463C1CCD
:103890006F68201C391C24F0BBFC002802D0B31E2A
:1038A00098463C1CAF68201C391C24F0B1FC002851
:1038B00002D0731E98463C1CEF68201C391C24F073
:1038C000A7FC002801D0B0463C1C043610354E45FC
:1038D000D4D1029B1B019A4403235D465A461D40E6
:1038E000134222D053461E68211C301C24F0A6FC33
:1038F000002826D16E1E012D17D053465D68201C6E
:10390000291C24F085FC002803D0039B2C1C9B1B46
:103910009846012E09D053469D68201C291C24F08E
:1039200077FC002801D0D8462C1C4246009B1C6026
:10393000019B1A6005B0F0BCBB46B246A946A04642
:10394000F0BD039B341C5B1B9846D3E700239846CD
:10395000C2E7C046F0B54F46D64646468B08C0B5CE
:103960008846070092469946002B3DD004001E0071
:1039700000252168281C24F0FDFB616824F0FAFB77
:10398000A16824F0F7FBE16824F0F4FB013E051C7C
:103990001034002EEDD14B461B01FF180323444683
:1039A00042461C40134211D0281C396824F0E2FB27
:1039B000661E051C012C09D0796824F0DBFB051C70
:1039C000012E03D0B96824F0D5FB051C404624F035
:1039D00046FC011C281C24F0D0FB53461860E0BCB8
:1039E000BA46B146A846F0BD0025D7E7F0B5DE4699
:1039F00057464E464546E0B585B00193030010CBCF
:103A000003919A460B00013B9B469B080092029350
:103A10006ED001339B0099460023554604269846F4
:103A20002F68201C391C24F009FC002802D0F31E4A
:103A300098463C1C6F68201C391C24F0FFFB0028B2
:103A400002D0B31E98463C1CAF68201C391C24F0E1
:103A5000F5FB002802D0731E98463C1CEF68201C22
:103A6000391C24F0EBFB002801D0B0463C1C043686
:103A700010354E45D4D1029B1B019A4403235D4669
:103A80005A461D40134222D053461E68211C301C4A
:103A900024F0BEFB002826D16E1E012D17D0534600
:103AA0005D68201C291C24F0C9FB002803D0039B5F
:103AB0002C1C9B1B9846012E09D053469D68201C48
:103AC000291C24F0BBFB002801D0D8462C1C424600
:103AD000009B1C60019B1A6005B0F0BCBB46B2465F
:103AE000A946A046F0BD039B341C5B1B9846D3E758
:103AF00000239846C2E7C046F0B54F46D646464634
:103B00008B08C0B58846070092469946002B67D0BF
:103B100004001E0000252168013E081C24F041FB22
:103B2000291C24F027FB6168051C081C24F039FBC4
:103B3000291C24F01FFBA168051C081C24F031FB84
:103B4000291C24F017FBE168051C081C24F029FB44
:103B5000291C24F00FFB1034051C002EDBD14B4632
:103B60001B01FF180323444642461C4013421FD04A
:103B70003968661E081C24F014FB011C281C24F064
:103B8000F9FA051C012C13D07968081C24F009FBF4
:103B9000011C281C24F0EEFA051C012E08D0B86880
:103BA000011C24F0FEFA011C281C24F0E3FA051C79
:103BB000404624F054FB011C281C002524F0DDFAAB
:103BC000291C041C24F032FB00280BD0201C24F0FC
:103BD000B5FB53461860E0BCBA46B146A846F0BDF6
:103BE0000025BFE753461D60F5E7C046F0B5C64661
:103BF000884600B500291DD014000025238862885E
:103C00009B089F00C7193E689208B4469600861923
:103C1000316801333960614601329B0092003160A6
:103C2000C31882181E6811680235196004341660C2
:103C30004545E3D380BCB846F0BDC0460388F0B527
:103C40009A0057464546DE464E468C461400E0B57F
:103C500005006444A44695B05A086F68119292001A
:103C60001290139108000F94891810976244DB0892
:103C700000D117E182461B01534489468046A24683
:103C8000934601970E93504642464068526803900F
:103C9000484602924A46406812680A904846049292
:103CA0004A46C06892680C9058460B925A46414664
:103CB000406812684346069058468E68CC68059264
:103CC00051465A46C0681B68926809680D90181CD6
:103CD000079255460991089324F04CFA4346AF6881
:103CE0000399ED681860029824F044FA4346391CA1
:103CF0005860301C24F03EFA4346291C9860201C72
:103D000024F038FA43460999D860089824F02FFA2D
:103D100003990890029824F02AFA391C0290301C6A
:103D200024F025FA291C0390201C24F020FA059980
:103D30000990049824F01EFA4B460A9D06991860D3
:103D4000281C24F017FA4B460B9F07995860381C23
:103D500024F010FA4B460D9E0C9C9860311C201CE0
:103D600024F008FA4B460499D860059824F0FFF92E
:103D7000291C0490069824F0FAF9391C051C0798B0
:103D800024F0F5F9211C0590301C24F0F0F9019F76
:103D900006903C680898211C24F003FA7E68071CF2
:103DA000311C029824F0FDF9011C381C24F0E2F9C2
:103DB0005346211C1860029824F0F3F9311C071CAB
:103DC000089824F0EEF9011C381C24F0D0F9534671
:103DD000311C5860049824F0E4F9211C071C281CAD
:103DE00024F0DFF9011C381C24F0C1F95B46311CBA
:103DF0001860281C24F0D5F9211C051C049824F017
:103E0000D0F9011C281C24F0B5F95B46019F5860CD
:103E1000BC680398211C24F0C4F9FD68061C291C09
:103E2000099824F0BEF9011C301C24F0A3F9534674
:103E3000211C9860099824F0B4F9291C061C0398E9
:103E400024F0AFF9011C301C24F091F95346291CD1
:103E5000D860059824F0A5F9211C061C069824F0CA
:103E6000A0F9011C301C24F082F95B46291C9860E3
:103E7000069824F096F9211C051C059824F091F968
:103E8000011C281C24F076F95B46D86010239C4660
:103E9000103701970E9BE044E144E344E244984527
:103EA00000D0F0E66B4644229B181C88109A210033
:103EB0001398022300F03AFC129B21005A680F98D5
:103EC000022300F033FC15B0F0BCBB46B246A94655
:103ED000A046F0BDF0B5DE4657464E4645468C46F8
:103EE0000388E0B55B089E00B4446746B444654669
:103EF000B4446246A5B00C682290029540682D68D3
:103F00005B0819900791201C291C0392219324F02F
:103F100031F9291C0190201C24F029F9079C029DED
:103F200064686D688246291C201C24F023F9291C32
:103F30008146201C24F01BF93B00039A1D6814687D
:103F40007F6883460199281CB8460593576824F07A
:103F500011F9211C24F00EF90799059B086008311E
:103F60001D914846596824F005F9039A516824F0D8
:103F700001F9079948605146404624F0FBF8391C86
:103F800024F0F5F8059B291C1A00186008325846E1
:103F90001B9224F0ECF8211C24F0ECF8059A291C63
:103FA0005060019824F0E3F8211C24F0E0F8029B13
:103FB0001900083118601C914846414624F0D7F892
:103FC000391C24F0D4F8029948604146504624F048
:103FD000CEF8391C24F0CEF8039F59463A003860D9
:103FE0000832281C1A9224F0C5F8211C24F0BFF8CE
:103FF00078601998219B0100023B08311F9118300D
:1040000008315C0820911E90239400D112E2330005
:10401000BB460C3B9B4408235B42049304330822B9
:10402000069310339846D9460D940C900B9101924B
:10403000019B079EF458029E201CF558291C24F071
:1040400099F8291C071C201C24F091F84146079A76
:10405000765855580890311C281C24F08BF8311CD8
:10406000041C281C24F083F84146059D039A6958D6
:1040700009908B464146515858468A46089924F083
:1040800079F8514624F073F8019B039AEE58D558FD
:10409000311C0E90099824F06AF8291C24F06AF863
:1040A000311C0F90381C24F062F8291C24F05FF8B2
:1040B00059461090201C24F05AF8514624F057F825
:1040C00059461190089824F052F8514624F052F8BD
:1040D00009991290301C24F04DF8291C24F047F85F
:1040E000391C1390301C24F045F8291C24F042F8A8
:1040F0004146019B079E059DF0506958201C24F005
:1041000039F84146039F4446795824F033F830513A
:104110002E00049D74597D59201C291C24F02AF876
:10412000291C0890201C24F022F8069A0399B558FF
:104130008E58071C311C281C140024F01BF8311C5D
:104140000990281C24F013F84946029E0A9035591C
:104150008C68281C211C24F00AF8391C061C24F049
:1041600009F81490029A04990A9851588B464946C6
:1041700049688A46594623F0FAFF514623F0FAFF70
:1041800059461590089823F0F2FF514623F0EFFFAF
:10419000291C1690099823F0EAFF211C23F0E7FF61
:1041A000391C1790301C23F0E2FF594618905046F6
:1041B00023F0DDFF0A9923F0DAFF0999071C281C78
:1041C00023F0D8FF211C23F0D5FF069A059C049DFF
:1041D000029EA0507159089823F0CCFF49464968C7
:1041E00023F0C8FF1999019B6051CC584346CD5824
:1041F0000E9B211C181C9A4623F0D3FF0F9B061C14
:10420000291C181C9B4623F0CCFF011C301C23F0FA
:10421000B1FF019B0599C850211C584623F0C1FFEE
:10422000291C061C504623F0BCFF011C301C23F047
:104230009EFF43460599C850159B291C181C9A4699
:1042400023F0AFFF149B061C211C181C9B4623F077
:10425000A8FF011C301C23F08AFF069A029E291C2D
:10426000B050584623F09DFF211C051C504623F0FA
:1042700098FF011C281C23F07DFF049D0B997051B1
:104280000C68109B4D6810310B91181C211C9A462C
:1042900023F087FF119B061C291C181C9B4623F04A
:1042A00080FF011C301C23F065FF029E019B211C36
:1042B000F050584623F075FF291C061C504623F089
:1042C00070FF011C301C23F052FF4146029E179BD9
:1042D000705080263606B446190061440800211C3F
:1042E0009A4623F05EFF169B061C291C181C9B4651
:1042F00023F057FF011C301C23F039FF069A039E60
:10430000291CB050504623F04CFF211C051C584678
:1043100023F047FF011C281C23F029FF049D0C9962
:1043200070510C68129B4D6818310C91181C211C9F
:104330009A4623F036FF139B061C291C181C9B462B
:1043400023F02FFF011C301C23F014FF019B039E60
:10435000211CF050584623F024FF291C061C50460F
:1043600023F01FFF011C301C23F001FF4146039E78
:104370007050291C381C23F014FF189B061C211CAC
:10438000181C9A4623F00DFF011C301C23F0EFFE91
:1043900049468860291C504623F003FF211C051C58
:1043A000381C23F0FEFE011C281C23F0E3FE4946C6
:1043B00048600820019B404208338446019308234B
:1043C000E1449C460D99069A049D013912182D1856
:1043D0000D91E04406920495002900D028E61D992D
:1043E000239A8C46D3009C4461461D911F992098C6
:1043F0008C469C4461461F911B998C469C446146A7
:1044000084461B91110012019444624620921C9A2A
:1044100094469C4462468C461C924A001E99624413
:104420008C46D200944462461E921A9A94469C444A
:1044300063461A931D9E1C9F34683D68201C291CEE
:1044400023F098FE291C0190201C23F090FE746834
:104450007D688146291C201C23F08CFE291C834684
:10446000201C23F084FE1B9C061C6368494698466A
:104470001A9B40465F6823F07DFE391C23F077FECF
:104480001A9B25681C680490291C301C23F06FFEC1
:10449000211C23F06FFE291C8246019823F067FE41
:1044A000211C23F064FE41460690584623F05FFE2F
:1044B000391C23F05CFE41460890484623F057FE25
:1044C000391C23F057FE311C8046281C23F052FE75
:1044D000211C23F04CFE0199071C281C23F04AFEE6
:1044E000211C23F047FE1D9E1B9C306061685846CE
:1044F00023F040FE1A9B596823F03CFE1F99706020
:10450000049B0E684D68181C311C9B4623F049FE25
:10451000291C041C504623F044FE011C201C23F0DF
:1045200029FE1B9C311C2060504623F03AFE291CBA
:10453000041C584623F035FE011C201C23F017FEF6
:104540001B9C20996060069B0E684D68181C311CEE
:104550009A4623F026FE089B041C291C181C994629
:1045600023F01FFE011C201C23F004FE1C9A311CAA
:104570001060484623F015FE291C041C504623F009
:1045800010FE011C201C23F0F2FD1C9A50601E9AA4
:10459000404616685568311C23F003FE291C041C94
:1045A000381C23F0FEFD011C201C23F0E3FD1A9BA8
:1045B000311C1860381C23F0F4FD291C041C4046F3
:1045C00023F0EFFD011C201C23F0D1FD1A9B842257
:1045D00058606B469B181C88199A21000798042381
:1045E00000F0A4F8229D21006B6805980193019AC0
:1045F000042300F09BF86B6821000193019A029854
:10460000042300F093F8042321006A68039800F063
:104610008DF825B0F0BCBB46B246A946A046F0BD19
:10462000F0B5D6464F4646460C00804691469A461F
:10463000C0B50588012A66D080235B009D425DD00D
:104640001AD980231B019D4258D04AD980235B018F
:104650009D4206D14246012329002000526800F005
:1046600065F85346002B13D14B46012B19D0E0BC03
:10467000BA46B146A846F0BD402DEBD03AD9802DC0
:10468000EFD121004046FFF7D9FA5346002BEBD07B
:10469000434620009A689989FFF7A8FA4B46012BF8
:1046A000E5D1280023F0DBFD011CFE20800523F06E
:1046B00064FD071C002DDAD000262068391C23F089
:1046C00070FD8022120694466368206063441800DF
:1046D000391C23F066FD013660600834B542ECD821
:1046E000C5E780239B009D42B4D08023DB009D4220
:1046F000C7D0B6E7102DC4D0202DB2D1210040463E
:10470000FFF7E8FBADE70431002D0BD00027802236
:10471000120694460B68013763440B600831BD42B2
:10472000F5D889E75346002BA1D0B1E7F0B5DE46B6
:1047300057464E464546E0B5B5B0319303000433C5
:1047400005931300199104333393199B02901B9125
:104750003292DA089446DB001A9353006344DB007C
:104760009C46029954016144A446039161448C46DD
:1047700017939300D31A1B01634401911900D000D1
:10478000149313018C4615930300634484463092BE
:104790001A1A111D62441393131A099304330C93CC
:1047A0000023A3461291111D16900B9204910093C1
:1047B0000A935A46029B009F9E58DD59311C281CC3
:1047C00023F0D8FC041C281C5D46311C23F0CFFCD0
:1047D000149A0D90D6595759301C391C23F0CAFC35
:1047E000391C051C301C23F0C2FC5946139A009E4C
:1047F00057589659391C0E90301C23F0BBFC391CBD
:104800008046301C23F0B3FC039A019B176819689B
:104810000F90381C894623F0ADFC4946061C381C15
:1048200023F0A5FC41461090201C23F0A0FC41463B
:10483000071C201C23F09EFC311C041C281C23F0A8
:1048400096FC311C1190281C23F094FC051C011CC3
:10485000201C23F08FFC009E02998851291C201CEB
:1048600023F085FC5D465B46029C6051059DAC597A
:10487000ED58201C291C23F07DFC291C8046201C9F
:1048800023F075FC5946129B06909C595D58201CDC
:10489000291C23F06FFC291C8246201C23F067FC96
:1048A0005B460499041C8D59CE58281C311C23F0FA
:1048B00061FC311C8146281C23F059FC039A0199A4
:1048C00055684E680790311C281C23F053FC311C9E
:1048D0000890281C23F04BFC4946051C404623F059
:1048E00046FC4946061C404623F044FC0899814694
:1048F000504623F03CFC08998046504623F03AFC91
:104900008246011C484623F035FC009B0599C8509F
:104910005146484623F02BFC5B460599C85041465A
:10492000381C23F027FC0B9A009B4146D050381CC2
:1049300023F01DFC5B460B9FF850119B301C191C8B
:10494000994623F014FC049F009B311CF850484604
:1049500023F010FC5E46109BB8519A46191C0E9B22
:10496000181C984623F003FC7F4923F01AFC51469B
:104970008146404623F0FEFB7B4923F012FC291CB4
:10498000061C201C23F0F3FB774923F00AFC291CAA
:10499000071C201C23F0EEFB734923F002FC0D9C46
:1049A00082464946201C23F0E2FB49468046201CF3
:1049B00023F0E0FB0F9D8146311C281C23F0D7FB20
:1049C000311C041C281C23F0D5FB391C061C06983E
:1049D00023F0CDFB391C051C069823F0CBFB514678
:1049E000071C079823F0C3FB51460690079823F055
:1049F000C1FB011C8246484623F0BCFB009B099981
:104A0000C8505146484623F0B2FB069B019999468F
:104A10000860191C404623F0ADFB5B46099A4946E5
:104A2000D050404623F0A3FB039A311C1060381C81
:104A300023F09DFB009B0C99C850391C301C23F0BF
:104A400099FB019F211C7860281C23F090FB5E4697
:104A50000C998851291C201C23F08CFB19990A9C65
:104A60008C461A9964448C46009B039A63440093D5
:104A70001B9B5060674462440A9403920197E3448D
:104A8000A34200D995E63098072800D8DCE2169BAF
:104A9000159908332E930B00179A08332D931300A2
:104AA000944608332C93099B63448C461A1D11923B
:104AB000020106939B1A181D63442A90181D9B1A25
:104AC0002890181D634427902593181D9B1A9C4419
:104AD0001090181D63469A1A191D0893131D2693EA
:104AE00001232B930023299007912F93319B2F991A
:104AF0009C4661448C46329CC80023580E01270016
:104B00000B93A3592F911C934B006344DD00625912
:104B10001B011D924A019046A2580C928A006244E1
:104B2000D200A458411A1E94FC58C9001F947C5806
:104B3000339F0D94BC59FB5820947C59BA5821944A
:104B4000444638583C5923937B5822920E900F9438
:104B500024932B9BDA0000922C9A0A9303922D9AAD
:104B600004922E9A019201E0F304353F029B069ACB
:104B7000009FDD59D659281C311C23F0FBFA311C4B
:104B8000041C281C23F0F3FA029B069A019E09904C
:104B90009D599759281C391C23F0ECFA391C061C26
:104BA000281C23F0E4FA049A029B06999D588F581A
:104BB0001290391C281C23F0DDFA391C8046281C71
:104BC00023F0D5FA069A0399029B13905D58535827
:104BD000281C191C994623F0CDFA4946071C281CAD
:104BE00023F0C5FA41461490201C23F0C0FA414638
:104BF000051C201C23F0BEFA391C041C301C23F0B9
:104C0000B6FA391C1590301C23F0B4FA061C011CAE
:104C1000201C23F0AFFA029B009F311CD851201CAE
:104C200023F0A5FA059B119ADE59D759041C391CAB
:104C3000301C23F09FFA391C8046301C23F097FA71
:104C4000059B119A019E16909F599659381C311C4C
:104C500023F090FAB146061C4946381C23F087FA27
:104C60002A9A009F2899D759049A17908A58381C75
:104C7000111C924623F07EFA51468146381C23F0DF
:104C800076FA019A279F0399BF581890BA46109F49
:104C9000504679588B4623F06DFA5946071C50460A
:104CA00023F065FA49468346404623F060FA4946B8
:104CB0008246404623F05EFA391C8046301C23F0C1
:104CC00056FA391C8146301C23F054FA4946071C19
:104CD000281C23F04FFA4946061C281C23F047FAEB
:104CE000391C051C404623F045FA009B0599C85025
:104CF000391C404623F03BFA159B8046191C504650
:104D0000994623F034FA5146071C484623F032FAFC
:104D1000211C81460C9823F044FA414682460F98A4
:104D200023F03FFA011C504623F024FA259A009BF9
:104D30004146D0500C9823F034FA211C80460F983D
:104D400023F02FFA011C404623F011FA109C009B1F
:104D5000311CE0501C9B181C984623F022FA209B23
:104D6000041C391C181C9A4623F01BFA011C201C39
:104D700023F000FA0299049C0851391C404623F0A4
:104D800010FA311C041C504623F00BFA011C201CA5
:104D900023F0EDF9299E009B291CF0501F9B181C45
:104DA000984623F0FEF9239B4946041C181C9A469A
:104DB00023F0F7F9011C201C23F0DCF9049F089E66
:104DC0004946F051404623F0ECF9291C041C50469A
:104DD00023F0E7F9011C201C23F0C9F9079D149B5F
:104DE000E851129D191C281C984623F0C0F99A49D5
:104DF00023F0D7F94146061C281C23F0BBF996493D
:104E000023F0CFF9179B051C5946181C984623F030
:104E1000AEF9914923F0C5F95946071C404623F0E5
:104E2000A9F98D4923F0BDF9099B041C311C181CFC
:104E30009A4623F09CF9311C8046504623F09AF99B
:104E4000139B8246291C181C994623F090F9291CB3
:104E50000990484623F08EF9169B061C391C181C35
:104E6000994623F084F9391C051C484623F082F941
:104E7000189B071C211C181C9B4623F078F9211C49
:104E80008146584623F076F98346011C504623F0AC
:104E900071F95946041C504623F069F94946824687
:104EA000404623F067F949468346404623F05FF9C0
:104EB000311C8146381C23F05AF9391C8046301CBD
:104EC00023F058F90999071C281C23F050F9291CD4
:104ED000061C099823F04EF9211C051C0B9823F0A1
:104EE00060F9414609900E9823F05BF9011C09987E
:104EF00023F040F9019A0299885041460B9823F01B
:104F000050F9211C80460E9823F04BF9011C4046B5
:104F100023F02DF9019A059C5146A0500D9823F0DD
:104F200040F9249B041C391C181C984623F039F9BD
:104F3000011C201C23F01EF9089A039C391C1051F7
:104F40000D9823F02EF95146041C404623F029F910
:104F5000011C201C23F00BF9079A1E9B039C594649
:104F60001051181C9A4623F01CF9229B041C311C7A
:104F7000181C984623F015F9011C201C23F0FAF8A0
:104F8000089A019F311CD051504623F00AF9594626
:104F9000041C404623F005F9011C201C23F0E7F80F
:104FA000079A4946D0511D9B3E00181C9A4623F093
:104FB000F8F8219B041C291C181C984623F0F1F8D2
:104FC000011C201C23F0D6F8039C02990851291CCF
:104FD000504623F0E6F84946041C404623F0E1F829
:104FE000011C201C23F0C3F8269A009BD051199A6B
:104FF0000A9894461A9A6044944663440093039B2B
:10500000049F634403931B9B664467440A90019684
:105010000497834200D9A9E52E9A2B9B08322E9241
:105020002D9A013308322D922C9A2B9308322C9210
:10503000309A9A4200D059E5319B1992DB009BB21D
:1050400031931300FFF785FB35B0F0BCBB46B24689
:10505000A946A046F0BDC046F304353FF0B5DE4694
:105060004E4645465746E0B50C000388096887B0B0
:10507000013B4769081C1500039323F07BF8616826
:10508000061C081C23F076F88046011C301C23F017
:1050900071F8FC21890523F084F841462860301C12
:1050A00023F065F8FC21890523F07BF8039B083782
:1050B000DB009946A144083426002C000834B84689
:1050C0004F46A14668603B6841469A46336842466F
:1050D0009B4649681268736850460591594602928A
:1050E000019323F044F87D68041C0199281C049561
:1050F00023F040F85946051C504623F03BF8211C8C
:105100008246029823F04DF8011C504623F032F8F5
:10511000059B8246291C181C9B4623F042F8011C63
:10512000504623F027F8FC21890523F03AF84B4636
:1051300004991860019823F01AF8211C82465846F9
:1051400023F02FF8011C504623F014F8291C041CEE
:10515000029823F026F8011C201C23F008F8FC21FB
:10516000890523F01EF808224B4694465860039B9D
:105170000836013B083F0393E144E044002BA2DCE6
:1051800007B0F0BCBB46B246A946A046F0BDC0463B
:10519000F0B5DE4657464E464546E0B506884769B7
:1051A000731E98460B6887B099464B680C004846BA
:1051B000191C15009A4622F0DDFFFC21890522F01A
:1051C000F0FF51462860484622F0D1FFFC218905B6
:1051D00022F0E7FF4346DB009B46082399464346FF
:1051E00008376860A344A144002B63DD2C00B84657
:1051F0004F46F600AB19083405935B465D681B68A3
:10520000414699463B6842469A46496812687B681F
:105210005046049149460292019322F0A8FF019959
:10522000061C281C039522F0A5FF5146051C484684
:1052300022F0A0FF311C8146029822F0B2FF011C2F
:10524000484622F094FF049B8146291C181C9A466C
:1052500022F0A7FF011C484622F089FFFC218905A6
:1052600022F09FFF03992060019822F080FF311CFB
:105270008146504622F095FF011C484622F07AFFF5
:10528000291C061C029822F08CFF011C301C22F005
:105290006EFFFC21890522F084FF08235B429C46B7
:1052A0001033E3449C46059B606008340837E044B3
:1052B000A342A2D107B0F0BCBB46B246A946A04665
:1052C000F0BDC046F8B504000D0016001F1E08D042
:1052D000FFF75EFF01233A0031002000FFF7A0F93D
:1052E000F8BD01230022FFF79BF9320029002000BE
:1052F000FFF7B4FEF4E7C046102803D8024B800045
:10530000C05870470148FCE748EF0610A4EE0610AD
:10531000F8B515001C000022002306000F0021F044
:1053200021FD002803D000232B602360F8BD22005C
:105330003000390069F07CFA0022124B21F0CFFCDA
:1053400021F098FE21F0A4FD002918DC13D0802361
:105350001B06984207D023681F3302DA002300207F
:1053600023602860E2E70029F5D180202368C0058A
:1053700001332360F0E780231B069842E7D95BF0F6
:10538000C3F8C0460000E041F0B5C64604008020E6
:1053900000B582B0009201930A9B00069846089BD4
:1053A0000D00D84021F014FD009A019B06000F006B
:1053B0002000290021F093FC02000B00300039008E
:1053C00021F08DFC2A4A2B4B04000D0021F0E8FC53
:1053D000061E17D1002220002900274B21F0E0FCF7
:1053E00000282ED0002200232000290021F0BAFC42
:1053F000002809D0099B1E6043461E6002B080BC95
:10540000B846F0BD1A4C1B4D42462000290069F0F9
:105410000FFA0022194B21F062FC21F02BFE21F043
:1054200037FD00290DDC1ED080231B06984210D0CA
:1054300043461B681A001F3205DB099A1060002BD7
:10544000DCDA5BF061F8002342461360099A1360CE
:10545000D4E70029ECD14346424680201B68C005B2
:1054600001331360E6E780231B069842DCD9E8E7A6
:105470000000C0FFFFFFDF410000F03F0000E041FF
:10548000F8B5CE46012381464746180098464B465C
:10549000984080B5013816000F0021F099FC4B466A
:1054A000F21A20235B4204000D00D31826D4414693
:1054B000994001263000904021F0DEFC0B000200F4
:1054C0002900200021F00BFC20235B4204000D008A
:1054D000FB1818D4310099400120B84021F0CCFCD1
:1054E00002000B002000290021F0DBFB21F012FE5E
:1054F00021F086FCC0BCB946B046F8BD2023414629
:105500009B1AD940D5E720233100DB1BD940E3E7C4
:105510000B6810B502CB002A0EDB8A420CDA92002F
:10552000D158002908DB8368002B02D088011818A5
:1055300010BD036D9847FBE70020F9E74B6810B5F5
:1055400002CB002A0EDB91420CDD9200D1580029DB
:1055500008DB8368002B02D08801181810BD036D8A
:105560009847FBE70020F9E70B6810B502CB002A4B
:105570000EDB8A420CDA9200D158002908DB8368DE
:10558000002B02D08801181810BD036D9847FBE767
:105590000020F9E7F0B5CE46474680B51C00CB6841
:1055A00005009846D36883B09946002C2BD040461E
:1055B00022F0BAFE060048460F0022F0B5FE0200B7
:1055C0000B003000390021F08AFB0600E0680F0074
:1055D00022F0AAFE02000B003000390021F04FFB40
:1055E0000A9B0600D8684C0022F09EFE6408020068
:1055F0000B003000210021F054FB1C4A1C4B21F011
:10560000BFFB002821D04946404622F0CAFD0021B8
:10561000041C22F00BFE002822D0201C22F084FE65
:105620000A9B0400D8680D0022F07EFE0B000200E9
:105630002900200021F035FB0B9B186059600020E9
:1056400003B0C0BCB946B046F0BD0A4B0093A223DC
:105650006C695B002800084A0849A0470120EFE771
:10566000074B009352236C69FF33F3E77B14AE477B
:10567000E17A943F24F006108CEF06100CF006102F
:1056800048F00610F0B5C64600B514781D0082B08B
:10569000032C38D0092C1ED0072C0FD1354E364C98
:1056A000D3681769984601291DD0032933D00229F0
:1056B0004ED0089B2C6000201E6008E02F4B304A23
:1056C0000093C22344692F495B00A047012002B028
:1056D00080BCB846F0BD8024D3687F269846176901
:1056E00064420129E1D1191C002022F046FD22F07C
:1056F00091FE22F0DBFDC719A74207DB089B2F6054
:105700001E600020E3E7FF260024C9E72700089B6E
:105710002F601E60F5E7191C002022F02EFD22F0FC
:1057200079FE22F0C3FDC019A04200DA20004146F4
:105730002860154822F021FD22F06CFE22F0B6FD13
:10574000C719B74200DD3700089B00201F60BEE785
:10575000191C0E4822F011FD22F05CFE22F0A6FD7D
:10576000C019A04200DA20002860FE2041468005D2
:10577000E0E7C046FF7F00000080FFFF64F00610F6
:105780008CEF06100CF006100000C040000080BF37
:10579000F0B58021D6464F4646460200C0B5C31735
:1057A0000906884200D12AE1802000210006121853
:1057B0004B41D90754080C435D10210F2B010B43BB
:1057C000220112196B411000D6085B0733434207D0
:1057D00012196B4192185B4112196B41960F990097
:1057E0003143900000196941030F0F011F43060167
:1057F000361A8F41310E3B020B433202B6185F411D
:10580000310C3B040B433204B6185F4136196F412B
:1058100033003B4300D1A3E10123DD4A5B429219EF
:105820007B410027D91749004E08B6185F417B001D
:10583000F60F1E43D74B20009C466644F7173200F4
:105840003B00290022F076FC80220023D20580183C
:10585000594180224B00C00F18439205101A3B009B
:105860003200C11722F066FC02000B001000191E66
:1058700000DBCDE00123C64A5B428018594100237A
:10588000CF177F007A08801859414A00C70F174385
:10589000CB1799463A00E020000684460120634673
:1058A000D10F4042934241414B46BA0F9B001343F4
:1058B0004842BF005A1C00DABFE0013300D1B7E014
:1058C000C20F01393940D2074A409046B04443469E
:1058D000DB179A4622002B004046514622F02AFC54
:1058E00006000F1E00DA9FE080220023D2059219E5
:1058F0007B410021DE1776007008801859414B006B
:10590000C00F184380239B05181A42469946C117B9
:10591000534622F00FFC02000B0006000F1E00DAB7
:10592000B0E080200021C005801859414B00C00F15
:105930001843484500DB29E1002280009043D20F44
:10594000D6074640464420002900F3173200984607
:1059500022F0F0FB04000D1E00DAF5E080220023A7
:10596000D20512196B410021DC1764006008801811
:10597000594180274B00C00F1843BF05381A320029
:105980004346C11722F0D6FB02000B0004000D1E97
:1059900000DAB7E080200021C00512184B41110049
:1059A0005B00CA0F1A4300219300BA4200DBF9E002
:1059B000CA0F8B43D2075A4080239619DB059E42BB
:1059C00000DBE1E0C023012134001B06F00F494257
:1059D000F517B342484124196D4143422A006E1C19
:1059E00000DABAE0013200D1B2E00138DB0F20402A
:1059F000DB075840E0BCBA46B146A846F0BD591C8A
:105A000000D0D1E601246442E517634A634B614E3E
:105A100080200021C00512184B415900D70F0F43B9
:105A2000DB1799463A0036E70123594A5B425EE7A5
:105A300080231B069F4200D342E780231B06984623
:105A4000B04443464246DB172000290099469A4657
:105A500022F070FB02000B0006000F1EE4DB80202A
:105A60000021C00512184B41110080205B00CA0FB5
:105A70001A438005801A4B464246C11722F05AFB52
:105A800006000F000123424A5B4292197B4100212C
:105A9000DE177600700812184B415900D00F0843EA
:105AA0000126E021C20F0906764281427241DB17CE
:105AB000810F9B000B4352428000591C54DA802610
:105AC00036064644F71732003B002000290022F03A
:105AD00031FBB84602000B0004000D1E34DB8020B1
